{
  "_format": "hh-sol-artifact-1",
  "contractName": "DAO",
  "sourceName": "contracts/DAO.sol",
  "abi": [
    {
      "inputs": [],
      "stateMutability": "payable",
      "type": "constructor"
    },
    {
      "anonymous": false,
      "inputs": [
        {
          "indexed": true,
          "internalType": "uint256",
          "name": "proposalId",
          "type": "uint256"
        },
        {
          "indexed": true,
          "internalType": "address",
          "name": "creator",
          "type": "address"
        },
        {
          "indexed": false,
          "internalType": "string",
          "name": "description",
          "type": "string"
        }
      ],
      "name": "ProposalCreated",
      "type": "event"
    },
    {
      "anonymous": false,
      "inputs": [
        {
          "indexed": true,
          "internalType": "uint256",
          "name": "proposalId",
          "type": "uint256"
        }
      ],
      "name": "ProposalExecuted",
      "type": "event"
    },
    {
      "anonymous": false,
      "inputs": [
        {
          "indexed": true,
          "internalType": "uint256",
          "name": "proposalId",
          "type": "uint256"
        },
        {
          "indexed": true,
          "internalType": "address",
          "name": "voter",
          "type": "address"
        }
      ],
      "name": "Voted",
      "type": "event"
    },
    {
      "inputs": [],
      "name": "admin",
      "outputs": [
        {
          "internalType": "address",
          "name": "",
          "type": "address"
        }
      ],
      "stateMutability": "view",
      "type": "function"
    },
    {
      "inputs": [
        {
          "internalType": "address",
          "name": "",
          "type": "address"
        }
      ],
      "name": "balances",
      "outputs": [
        {
          "internalType": "uint256",
          "name": "",
          "type": "uint256"
        }
      ],
      "stateMutability": "view",
      "type": "function"
    },
    {
      "inputs": [
        {
          "internalType": "string",
          "name": "_description",
          "type": "string"
        }
      ],
      "name": "createProposal",
      "outputs": [],
      "stateMutability": "nonpayable",
      "type": "function"
    },
    {
      "inputs": [
        {
          "internalType": "uint256",
          "name": "_proposalId",
          "type": "uint256"
        }
      ],
      "name": "executeProposal",
      "outputs": [],
      "stateMutability": "nonpayable",
      "type": "function"
    },
    {
      "inputs": [],
      "name": "proposalCount",
      "outputs": [
        {
          "internalType": "uint256",
          "name": "",
          "type": "uint256"
        }
      ],
      "stateMutability": "view",
      "type": "function"
    },
    {
      "inputs": [
        {
          "internalType": "uint256",
          "name": "",
          "type": "uint256"
        }
      ],
      "name": "proposals",
      "outputs": [
        {
          "internalType": "uint256",
          "name": "id",
          "type": "uint256"
        },
        {
          "internalType": "address",
          "name": "creator",
          "type": "address"
        },
        {
          "internalType": "string",
          "name": "description",
          "type": "string"
        },
        {
          "internalType": "uint256",
          "name": "votes",
          "type": "uint256"
        },
        {
          "internalType": "uint256",
          "name": "approvalVotes",
          "type": "uint256"
        },
        {
          "internalType": "enum DAO.ProposalStatus",
          "name": "status",
          "type": "uint8"
        }
      ],
      "stateMutability": "view",
      "type": "function"
    },
    {
      "inputs": [
        {
          "internalType": "uint256",
          "name": "_proposalId",
          "type": "uint256"
        }
      ],
      "name": "rejectProposal",
      "outputs": [],
      "stateMutability": "nonpayable",
      "type": "function"
    },
    {
      "inputs": [
        {
          "internalType": "uint256",
          "name": "_proposalId",
          "type": "uint256"
        }
      ],
      "name": "vote",
      "outputs": [],
      "stateMutability": "nonpayable",
      "type": "function"
    }
  ],
  "bytecode": "0x6080604052336000806101000a81548173ffffffffffffffffffffffffffffffffffffffff021916908373ffffffffffffffffffffffffffffffffffffffff160217905550620000573360646200005d60201b60201c565b6200012d565b80600360008473ffffffffffffffffffffffffffffffffffffffff1673ffffffffffffffffffffffffffffffffffffffff1681526020019081526020016000206000828254620000ae9190620000f2565b925050819055505050565b6000819050919050565b7f4e487b7100000000000000000000000000000000000000000000000000000000600052601160045260246000fd5b6000620000ff82620000b9565b91506200010c83620000b9565b9250828201905080821115620001275762000126620000c3565b5b92915050565b611730806200013d6000396000f3fe608060405234801561001057600080fd5b50600436106100885760003560e01c806349c2a1a61161005b57806349c2a1a61461012a578063bc28d87814610146578063da35c66414610162578063f851a4401461018057610088565b80630121b93f1461008d578063013cf08b146100a95780630d61b519146100de57806327e235e3146100fa575b600080fd5b6100a760048036038101906100a29190610c68565b61019e565b005b6100c360048036038101906100be9190610c68565b6105b0565b6040516100d596959493929190610dec565b60405180910390f35b6100f860048036038101906100f39190610c68565b6106a1565b005b610114600480360381019061010f9190610e80565b6108da565b6040516101219190610ead565b60405180910390f35b610144600480360381019061013f9190610ffd565b6108f2565b005b610160600480360381019061015b9190610c68565b610a99565b005b61016a610bf4565b6040516101779190610ead565b60405180910390f35b610188610bfa565b6040516101959190611046565b60405180910390f35b6000600360003373ffffffffffffffffffffffffffffffffffffffff1673ffffffffffffffffffffffffffffffffffffffff1681526020019081526020016000205411610220576040517f08c379a0000000000000000000000000000000000000000000000000000000008152600401610217906110d3565b60405180910390fd5b806000600281111561023557610234610d75565b5b6002600083815260200190815260200160002060050160009054906101000a900460ff16600281111561026b5761026a610d75565b5b146102ab576040517f08c379a00000000000000000000000000000000000000000000000000000000081526004016102a29061113f565b60405180910390fd5b816002600082815260200190815260200160002060060160003373ffffffffffffffffffffffffffffffffffffffff1673ffffffffffffffffffffffffffffffffffffffff16815260200190815260200160002060009054906101000a900460ff161561034d576040517f08c379a0000000000000000000000000000000000000000000000000000000008152600401610344906111ab565b60405180910390fd5b60016002600085815260200190815260200160002060060160003373ffffffffffffffffffffffffffffffffffffffff1673ffffffffffffffffffffffffffffffffffffffff16815260200190815260200160002060006101000a81548160ff0219169083151502179055506002600084815260200190815260200160002060030160008154809291906103e0906111fa565b919050555060016002600360003373ffffffffffffffffffffffffffffffffffffffff1673ffffffffffffffffffffffffffffffffffffffff168152602001908152602001600020546104339190611271565b61043d91906112a2565b60026000858152602001908152602001600020600301541061056757600260008481526020019081526020016000206004016000815480929190610480906111fa565b919050555060016002600360003373ffffffffffffffffffffffffffffffffffffffff1673ffffffffffffffffffffffffffffffffffffffff168152602001908152602001600020546104d39190611271565b6104dd91906112a2565b6002600085815260200190815260200160002060040154106105665760016002600085815260200190815260200160002060050160006101000a81548160ff0219169083600281111561053357610532610d75565b5b0217905550827f712ae1383f79ac853f8d882153778e0260ef8f03b504e2866e0593e04d2b291f60405160405180910390a25b5b3373ffffffffffffffffffffffffffffffffffffffff16837f030b0f8dcd86a031eddb071f91882edeac8173663ba775713b677b42b51be44b60405160405180910390a3505050565b60026020528060005260406000206000915090508060000154908060010160009054906101000a900473ffffffffffffffffffffffffffffffffffffffff16908060020180546105ff90611305565b80601f016020809104026020016040519081016040528092919081815260200182805461062b90611305565b80156106785780601f1061064d57610100808354040283529160200191610678565b820191906000526020600020905b81548152906001019060200180831161065b57829003601f168201915b5050505050908060030154908060040154908060050160009054906101000a900460ff16905086565b60008054906101000a900473ffffffffffffffffffffffffffffffffffffffff1673ffffffffffffffffffffffffffffffffffffffff163373ffffffffffffffffffffffffffffffffffffffff161461072f576040517f08c379a0000000000000000000000000000000000000000000000000000000008152600401610726906113a8565b60405180910390fd5b806000600281111561074457610743610d75565b5b6002600083815260200190815260200160002060050160009054906101000a900460ff16600281111561077a57610779610d75565b5b146107ba576040517f08c379a00000000000000000000000000000000000000000000000000000000081526004016107b19061113f565b60405180910390fd5b60016002600360003373ffffffffffffffffffffffffffffffffffffffff1673ffffffffffffffffffffffffffffffffffffffff168152602001908152602001600020546108089190611271565b61081291906112a2565b6002600084815260200190815260200160002060040154101561086a576040517f08c379a00000000000000000000000000000000000000000000000000000000081526004016108619061143a565b60405180910390fd5b60016002600084815260200190815260200160002060050160006101000a81548160ff021916908360028111156108a4576108a3610d75565b5b0217905550817f712ae1383f79ac853f8d882153778e0260ef8f03b504e2866e0593e04d2b291f60405160405180910390a25050565b60036020528060005260406000206000915090505481565b6000600360003373ffffffffffffffffffffffffffffffffffffffff1673ffffffffffffffffffffffffffffffffffffffff1681526020019081526020016000205411610974576040517f08c379a000000000000000000000000000000000000000000000000000000000815260040161096b906110d3565b60405180910390fd5b600060016000815480929190610989906111fa565b9190505590506000600260008381526020019081526020016000209050818160000181905550338160010160006101000a81548173ffffffffffffffffffffffffffffffffffffffff021916908373ffffffffffffffffffffffffffffffffffffffff16021790555082816002019081610a039190611606565b50600081600301819055506000816004018190555060008160050160006101000a81548160ff02191690836002811115610a4057610a3f610d75565b5b02179055503373ffffffffffffffffffffffffffffffffffffffff16827f7585f467599d0f008985f231af99293be388626ac16ca59505c2f8f88969cd6385604051610a8c91906116d8565b60405180910390a3505050565b60008054906101000a900473ffffffffffffffffffffffffffffffffffffffff1673ffffffffffffffffffffffffffffffffffffffff163373ffffffffffffffffffffffffffffffffffffffff1614610b27576040517f08c379a0000000000000000000000000000000000000000000000000000000008152600401610b1e906113a8565b60405180910390fd5b8060006002811115610b3c57610b3b610d75565b5b6002600083815260200190815260200160002060050160009054906101000a900460ff166002811115610b7257610b71610d75565b5b14610bb2576040517f08c379a0000000000000000000000000000000000000000000000000000000008152600401610ba99061113f565b60405180910390fd5b600280600084815260200190815260200160002060050160006101000a81548160ff02191690836002811115610beb57610bea610d75565b5b02179055505050565b60015481565b60008054906101000a900473ffffffffffffffffffffffffffffffffffffffff1681565b6000604051905090565b600080fd5b600080fd5b6000819050919050565b610c4581610c32565b8114610c5057600080fd5b50565b600081359050610c6281610c3c565b92915050565b600060208284031215610c7e57610c7d610c28565b5b6000610c8c84828501610c53565b91505092915050565b610c9e81610c32565b82525050565b600073ffffffffffffffffffffffffffffffffffffffff82169050919050565b6000610ccf82610ca4565b9050919050565b610cdf81610cc4565b82525050565b600081519050919050565b600082825260208201905092915050565b60005b83811015610d1f578082015181840152602081019050610d04565b60008484015250505050565b6000601f19601f8301169050919050565b6000610d4782610ce5565b610d518185610cf0565b9350610d61818560208601610d01565b610d6a81610d2b565b840191505092915050565b7f4e487b7100000000000000000000000000000000000000000000000000000000600052602160045260246000fd5b60038110610db557610db4610d75565b5b50565b6000819050610dc682610da4565b919050565b6000610dd682610db8565b9050919050565b610de681610dcb565b82525050565b600060c082019050610e016000830189610c95565b610e0e6020830188610cd6565b8181036040830152610e208187610d3c565b9050610e2f6060830186610c95565b610e3c6080830185610c95565b610e4960a0830184610ddd565b979650505050505050565b610e5d81610cc4565b8114610e6857600080fd5b50565b600081359050610e7a81610e54565b92915050565b600060208284031215610e9657610e95610c28565b5b6000610ea484828501610e6b565b91505092915050565b6000602082019050610ec26000830184610c95565b92915050565b600080fd5b600080fd5b7f4e487b7100000000000000000000000000000000000000000000000000000000600052604160045260246000fd5b610f0a82610d2b565b810181811067ffffffffffffffff82111715610f2957610f28610ed2565b5b80604052505050565b6000610f3c610c1e565b9050610f488282610f01565b919050565b600067ffffffffffffffff821115610f6857610f67610ed2565b5b610f7182610d2b565b9050602081019050919050565b82818337600083830152505050565b6000610fa0610f9b84610f4d565b610f32565b905082815260208101848484011115610fbc57610fbb610ecd565b5b610fc7848285610f7e565b509392505050565b600082601f830112610fe457610fe3610ec8565b5b8135610ff4848260208601610f8d565b91505092915050565b60006020828403121561101357611012610c28565b5b600082013567ffffffffffffffff81111561103157611030610c2d565b5b61103d84828501610fcf565b91505092915050565b600060208201905061105b6000830184610cd6565b92915050565b7f4f6e6c79206d656d626572732063616e2063616c6c20746869732066756e637460008201527f696f6e0000000000000000000000000000000000000000000000000000000000602082015250565b60006110bd602383610cf0565b91506110c882611061565b604082019050919050565b600060208201905081810360008301526110ec816110b0565b9050919050565b7f50726f706f73616c206d7573742062652070656e64696e670000000000000000600082015250565b6000611129601883610cf0565b9150611134826110f3565b602082019050919050565b600060208201905081810360008301526111588161111c565b9050919050565b7f596f75206861766520616c726561647920766f74656400000000000000000000600082015250565b6000611195601683610cf0565b91506111a08261115f565b602082019050919050565b600060208201905081810360008301526111c481611188565b9050919050565b7f4e487b7100000000000000000000000000000000000000000000000000000000600052601160045260246000fd5b600061120582610c32565b91507fffffffffffffffffffffffffffffffffffffffffffffffffffffffffffffffff8203611237576112366111cb565b5b600182019050919050565b7f4e487b7100000000000000000000000000000000000000000000000000000000600052601260045260246000fd5b600061127c82610c32565b915061128783610c32565b92508261129757611296611242565b5b828204905092915050565b60006112ad82610c32565b91506112b883610c32565b92508282019050808211156112d0576112cf6111cb565b5b92915050565b7f4e487b7100000000000000000000000000000000000000000000000000000000600052602260045260246000fd5b6000600282049050600182168061131d57607f821691505b6020821081036113305761132f6112d6565b5b50919050565b7f4f6e6c792061646d696e2063616e2063616c6c20746869732066756e6374696f60008201527f6e00000000000000000000000000000000000000000000000000000000000000602082015250565b6000611392602183610cf0565b915061139d82611336565b604082019050919050565b600060208201905081810360008301526113c181611385565b9050919050565b7f4e6f7420656e6f75676820617070726f76616c20766f74657320746f2065786560008201527f6375746500000000000000000000000000000000000000000000000000000000602082015250565b6000611424602483610cf0565b915061142f826113c8565b604082019050919050565b6000602082019050818103600083015261145381611417565b9050919050565b60008190508160005260206000209050919050565b60006020601f8301049050919050565b600082821b905092915050565b6000600883026114bc7fffffffffffffffffffffffffffffffffffffffffffffffffffffffffffffffff8261147f565b6114c6868361147f565b95508019841693508086168417925050509392505050565b6000819050919050565b60006115036114fe6114f984610c32565b6114de565b610c32565b9050919050565b6000819050919050565b61151d836114e8565b6115316115298261150a565b84845461148c565b825550505050565b600090565b611546611539565b611551818484611514565b505050565b5b818110156115755761156a60008261153e565b600181019050611557565b5050565b601f8211156115ba5761158b8161145a565b6115948461146f565b810160208510156115a3578190505b6115b76115af8561146f565b830182611556565b50505b505050565b600082821c905092915050565b60006115dd600019846008026115bf565b1980831691505092915050565b60006115f683836115cc565b9150826002028217905092915050565b61160f82610ce5565b67ffffffffffffffff81111561162857611627610ed2565b5b6116328254611305565b61163d828285611579565b600060209050601f831160018114611670576000841561165e578287015190505b61166885826115ea565b8655506116d0565b601f19841661167e8661145a565b60005b828110156116a657848901518255600182019150602085019450602081019050611681565b868310156116c357848901516116bf601f8916826115cc565b8355505b6001600288020188555050505b505050505050565b600060208201905081810360008301526116f28184610d3c565b90509291505056fea2646970667358221220d47d1f77a09141ffb4a9233f55fc51fe35044145ef6a935360788d937a6c35d364736f6c63430008140033",
  "linkReferences": {},
  "deployedLinkReferences": {}
}